:1000000000000120CD040000190500001D050000BE
:100010001505000015050000150500000000000092
:1000200000000000000000000000000021050000AA
:10003000150500000000000025050000290500004E
:100040002D050000310500003505000039050000D0
:100050003D05000041050000450500004905000080
:100060004D05000051050000550500005905000030
:100070005D050000610500006505000069050000E0
:100080006D050000150500001505000015050000B0
:1000900015050000150500001505000015050000F8
:1000A0007105000075050000790500007D05000060
:1000B0008105000085050000890500008D05000010
:1000C0009105000095050000990500009D050000C0
:1000D000A10500001505000015050000150500002C
:1000E00015050000150500001505000015050000A8
:1000F0001505000015050000150500001505000098
:100100001505000015050000150500001505000087
:100110001505000015050000150500001505000077
:1003F000150500001505000015050000FFFFFFFFB3
:10040000FFFFFFFFFFFFFFFFFFFFFFFFFEFFFFFFFD
:1004100010B5054C237833B9044B13B10448AFF33E
:1004200000800123237010BD6000FF1F000000004A
:100430004C07000008B5034B1BB103490348AFF359
:10044000008008BD000000006400FF1F4C07000092
:10045000A3F5803A704700BF174B002B08BF134B22
:100460009D46FFF7F5FF00218B460F461348144ABF
:10047000121A00F015F90E4B002B00D098470D4BC7
:10048000002B00D098470020002104000D000D48EB
:10049000002802D00C48AFF3008000F0DDF8200007
:1004A000290000F015F900F0C3F800BF00000800B3
:1004B0000000000000000000000001206000FF1F9D
:1004C0008000FF1F000000000000000072B60A4814
:1004D0000A4901600A6882F3088809488047094987
:1004E000094A0A4B9A42BEBF51F8040B42F8040B6A
:1004F000F8E762B60648804708ED00E0000000001B
:10050000F9060000740700000000FF1F6000FF1FD5
:1005100059040000FFF7FEBF224800472248004769
:100520002248004722480047224800472248004707
:1005300022480047224800472248004722480047F7
:1005400022480047224800472248004722480047E7
:1005500022480047224800472248004722480047D7
:1005600022480047224800472248004722480047C7
:1005700022480047224800472248004722480047B7
:1005800022480047224800472248004722480047A7
:100590002248004722480047224800472248004797
:1005A00022480047190500001D0500002105000034
:1005B00025050000290500001505000015050000AF
:1005C00015050000150500001505000015050000C3
:1005D00015050000150500001505000015050000B3
:1005E00015050000150500001505000015050000A3
:1005F0001505000015050000150500001505000093
:100600001505000015050000150500001505000082
:100610001505000015050000150500001505000072
:100620001505000015050000150500001505000062
:1006300008B5074B044613B10021AFF30080054B0A
:100640001868836A03B19847204600F07BF800BF22
:10065000000000004807000070B50D4D0D4C641BF4
:10066000A4100026A64209D10B4D0C4C00F06EF8E8
:10067000641BA4100026A64205D170BD55F8043BAA
:1006800098470136EEE755F8043B98470136F2E704
:100690006C0700006C0700006C070000700700008A
:1006A00002440346934200D1704703F8011BF9E767
:1006B00080B483B000AF78607B681B685A1C7B688D
:1006C0001A6000BF0C37BD465DF8047B7047000020
:1006D00080B582B000AF00237B60064B1B680133FE
:1006E000044A13607B6802337B600248FFF7E0FF37
:1006F000F3E700BF7C00FF1F80B500AF0B4BD3F8C2
:1007000088300A4A43F47003C2F88830084B4CF230
:100710002052DA81064B4DF62812DA81044B4FF451
:10072000E9721A8000F006F800BF80BD00ED00E01D
:100730000020054080B400AF00BFBD465DF8047BDB
:1007400070470000FEE700BF0000FF1FF8B500BFC4
:10075000F8BC08BC9E467047F8B500BFF8BC08BCA2
:040760009E467047FA
:08076400ECFCFF7F0100000026
:04076C003504000050
:040770001104000070
:100774000000000000000000000000000000000075
:100784000000000000000000000000000000000065
:100794000000000000000000000000000000000055
:1007A4000000000000000000000000000000000045
:1007B4000000000000000000000000000000000035
:1007C4000000000000000000000000000000000025
:04000003000004CD28
:00000001FF
